:02000000232DAE
:10000800FF00030E8301DE000A08DC008A01700885
:10001800A1000C1F19281E08D700D60183161E0838
:100028008312D6070318D70A0C132108F0005C08BE
:0C0038008A005E0E8300FF0E7F0E0900A0
:0400440000000800B0
:10004800083083120313FC002330FD00FD0B2A281F
:06005800FC0B2A28080041
:10005E00103083120313FD00FD0B3328000008003F
:10006E007B14FB1F4228F201FA1FFF30F200F10051
:0A007E00F000FA0DF20CFF3008004C
:1000880083120313F801F9011030FC00710DF80D0B
:10009800F90D7408F8027508031C750FF9020318A6
:1000A8005C287408F80775080318750FF90703101A
:0A00B800F00DF10DFC0B4A280800C2
:1000C200710DF80DF90D7408F8027508031C750F0F
:1000D200F902F00DF10D0F30FC00710DF80DF90D64
:1000E2007408701C7A28F8027508031C750FF9024F
:1000F2007F28F80775080318750FF907F00DF10D41
:10010200FC0B6E2870188B287408F8077508031802
:08011200750FF9070000080059
:10011A00FB14FB1F9728FF30F300F200F100F000F8
:08012A00FA0DF20CFF30080091
:08013200FA1FF213003008006F
:10013A007B15FB1FA7280130F300F201F101F00142
:08014A00FA0DF20CFF30080071
:1001520083120313ED1BAF288811B02888156D1B7D
:10016200B4280811B5280815ED1AB9288810BA283C
:1001720088146D1ABE280810BF2808145D18C328F9
:100182000816C4280812881622208812ED19CB28D6
:100192008811CC2888156D19D0280811D128081586
:1001A200ED18D5288810D62888146D18DA2808107A
:1001B200DB2808145D18DF280816E02808128816C4
:1001C200222088125D1CE7282420E8282F2008001E
:0E01D200F201F101F001F801F3010030080024
:1001E000831203137408003A031DFF287508003AB0
:1001F000031DFF28FF30F0007F30F10058298312E3
:100200000313FD01F901F8017108700403190034AA
:1002100071087506FA00FA1BFD09FB01F51F152987
:10022000F409F509F40A0319F50AF11F1C29F0096C
:10023000F109F00A0319F10A71087504FA00FA1BB2
:10024000312961207B184429FD1F0034F009F10990
:10025000F00A0319F10AF809F909F80A0319F90A69
:100260000034F51F4029F11B3C297108F900700882
:10027000F800F101F0012429F101F001F00A003445
:10028000F109F009FB0A2129F80A0319F90A74088F
:100290007802031D242975087902031D2429F90118
:1002A000F801F00A0319F10AF11F24290000FF34B4
:0202B000080044
:1002B20083120313FB017308031996297208FA00CB
:1002C200F2178E30F302F31F9929F309F30A08306B
:1002D2007302031C7C29F300F10D7208F100F20194
:1002E20008307302031C7C29F300F10DF10173083D
:1002F200031D031084297308031984290310F20CC7
:10030200F10CF30B7F297B1B711C8E29031C8E2998
:10031200F10A0319F20AF21BA529FA1FA829F20908
:10032200F109F10A0319F20AA829F201F101A82937
:100332007B14FB1FAB29F201FA1FAB29FF30F2003D
:10034200F100FA0DF20CAB290130FC00AD290030AE
:10035200FC00AD29FF30FC00FC080319B12937204D
:0A0362007108F0007208F1000800B5
:10036C00831203135D106808ED00A9205D140800CA
:10037C0083120313EB0105306B020318CC296B08B5
:10038C006A07840020308000EB0AC1296B086A07D9
:10039C0084008001EB036B086A07EC000A30F40060
:1003AC00F5016808F0006908F10044207808F000B5
:1003BC007908F1003030F0076C0884007008800078
:1003CC000A30F400F5016808F0006908F1004420D7
:1003DC007008E8007108E90000307106031DF82967
:1003EC0000307006031DFB29FD29EB03D129080001
:1003FC0083120313FB017308031D77080319552A95
:10040C0072087606FA007708F3077E30031C122A6E
:10041C00F3020318582A152AF302031C5B2A7208EC
:10042C00F8007108FC007008FD00F817F6170310AF
:10043C00F201F101F0011830A0007D1C2F2A740884
:10044C00F00775080318750FF10776080318760F77
:10045C00F207F20CF10CF00CF80CFC0CFD0C031078
:10046C00A00B232AF21B3F2AF80DF00DF10DF20D13
:10047C00F3037B1B701C512AF81F512AF00A031935
:10048C00F10A0319F20A031D512AF20CF10CF00CBB
:10049C00F30A0319582AFA1FF21300305D2A0130AF
:1004AC00E9205D2A02308D205D2A04309D20000059
:0204BC00080036
:1004BE00A0017208031D742A7108F2007008F10081
:1004CE00F001A0157208031D742A7108F200F101E3
:1004DE00A011201672080319822A2008F302031DA8
:1004EE00031C862A0310F21B8A2AF00DF10DF20D61
:1004FE00F30B7A2A862A0130FC00E9208D2A02307D
:0E050E00FC009D208D2A0430FC00992008007E
:0E051C008312031355088A0054088200080059
:06052A00FB15FF30080084
:1005300083120313E401E5015F08E6006008E700A9
:1005400080306006F00080307002031DA92A003060
:100550005F020318B72A0130E4000030E5005F08AD
:10056000003CE6006008031C013EE701E702660864
:10057000E8006708E9006108EA00BE210630E200F1
:100580000030E3006308003C031DC82A6208003CF9
:100590000318E32A62086107F20001306202F000EA
:1005A0000030031C013E6302F10070086107840003
:1005B0000008F00072088400700880000130E20238
:1005C000031CE303C22A6108840020308000640811
:1005D00065040319012BE201E3016208610784004D
:1005E0000008203A031DF82AE20A0319E30AED2A5B
:1005F0000130E202031CE3036208610784002D302E
:04060000800008006E
:10060400831203135F08F0006008F1006108F20030
:100614006208F3000030F4000030F5007A30F60090
:100624008830F700FE2159217008E4007108E500C4
:10063400E830F4000330F500F0203030F0076308B0
:10064400840070088000630A84002E308000023029
:100654006307E6006430F4000030F5006408F0003D
:100664006508F100F0200A30F4000030F500F020B5
:100674007808F0007908F1003030F007660884004B
:100684007008800003306307E6000A30F40000308D
:10069400F5006408F0006508F100F0200A30F40069
:1006A4000030F500F0207808F0007908F1003030CF
:1006B400F007660884007008800004306307E600D1
:1006C4000A30F4000030F5006408F0006508F10019
:1006D400F0207808F0007908F1003030F00766085F
:1006E4008400700880000530630784002030800097
:1006F40006306307840020308000073063078400DD
:040704008001080068
:1007080083120313D201D301831252085F078400B6
:100718000008003A03199D2B8316981C9C2B831202
:1007280052085F07840000089900D20A0319D30A07
:0A073800882B83122030990008007E
:10074200831203135F08F2007208F100F20A6008D4
:10075200F000E00A700884000008F00071088400CC
:10076200700880007108840000080319B92BA52BBA
:060772005F08F000080022
:10077800831203137408003A031DD72B7508003A37
:10078800031DD72B7608003A031DD72B7708003AAC
:10079800031DD72BFF30F000FF30F1007F30F2004F
:1007A800FF30F300722C8312031377080319662CA9
:1007B80073080319692C720876068039FA00F21753
:1007C800F617A0017208F8007108FC007008FD0017
:1007D8007408FD027508031C750FFC027608031CDB
:1007E800760FF802F801FC01FD01031C022C03102E
:1007F800F20CF10CF00CF80C0130A0007708F302B1
:10080800031C0C2C7E302007F30703186C2C112CCA
:100818007E302007F307031C6F2C1830FA07FD0DF4
:10082800FC0DF80DF00DF10DF20DA00D7408F0029D
:100838007508031C750FF1027608031C760FF20287
:10084800760DA004201C2A2C7D14352C7408F00782
:1008580075080318750FF10776080318760AF2076A
:100868007D10FA031F307A05031D132C7B1B7D1C9A
:100878005C2C0310F00DF10DF20DA00D7408F002C0
:100888007508031C750FF1027608031C760FF20237
:10089800760D20040139FD070318FC0A0319F80A2C
:1008A800031D5C2CF80CFC0CFD0CF30A03196C2CD2
:1008B800FA1FF8137808F2007C08F1007D08F000B0
:1008C8000030712C01309522712C0230E920712CF6
:0E08D80004308D20712C08309D200000080097
:1008E600831603138812081208108810081188113D
:1008F6008312881208128811081188100810242003
:1009060024202420881408148816222088122420E3
:100916008816222088122420881622208812242055
:100926000810881622208812242088162220881271
:100936008810881588162220881224208811081409
:100946008816222088120810881622208812242051
:10095600881622208812081488162220881224203D
:10096600081088162220881288150815881408147D
:0C09760088162220881224205D1408003E
:10098200D32C803083120313DF00E62CC030DF004B
:10099200E62C9430DF00E62CD430DF00E62C8030E9
:1009A200DF00E62C831203135F08013A0319C22CFD
:1009B2005F08023A0319C72C5F08033A0319CA2CCD
:1009C2005F08043A0319CD2CD02C6003F0005F08B5
:1009D200F0077008DF007008ED00A9205D10E20149
:1009E20062086107840000080319FF2C620861078E
:1009F20084000008E800B621E20AF12C5D14080028
:100A0200831203137008F8007108F000F101F2017B
:100A1200F301FB01FC019630F300FA017008F100CA
:0C0A22007808F000F801F2015F220800E3
:100A2E008E228A110A128000840AD40A0319D50A6A
:080A3E00F003031D172D080051
:100A46004E3083120313A2006130A3007030A4005D
:100A56006F30A5006E30A6003A30A700A8014230DC
:100A6600A9007230AA002E30AB007030AC00723094
:100A7600AD003A30AE00AF014B30B0006C30B10083
:100A86006930B2006B30B3006E30B4006930B50027
:100A96002030B6006E30B7006130B8002030B900A3
:100AA6007430BA006130BB007330BC007430BD00D6
:100AB6006530BE007230BF00C001C101C201C30172
:100AC60020308316031788008901031305160914BD
:100AD600011681168312810115309F00A0308316FE
:100AE6009F008B170B170C1783120C13831698167F
:100AF60018128312981783161815031787111930C1
:100B06000313990073240C30ED00A9200130DF0097
:100B16000130E0003030E100C12400304206031D00
:100B2600962D410801060319062E0130ED00A92075
:100B36000130DF000130E0002930E100C12402303D
:100B4600DF000130E0002230E100C1240108DF00AF
:100B5600E0014430E10098220130DF000730E00078
:100B66004430E100C1244B30DF004330E000A123D4
:100B76002930DF0084234430DF0084230108C100CC
:100B8600C20101300105F1007108003A031D062E6D
:100B96000108003A0319062E5608F0005708F1001E
:100BA60001250030F4000030F5000030F6008930F1
:100BB600F700BC230030F4000030F5002030F600CA
:100BC6008130F700FE217008D8007108D90072083C
:100BD600DA007308DB007008DF007108E0007208B5
:100BE600E1007308E2004B30E30002232230DF000D
:100BF60084234B30DF0084230230DF000730E0001F
:0C0C06004B30E100C1249F14902D082EFB
:04400E00F22F000786
:00000001FF
